{
  "_format": "hh-sol-artifact-1",
  "contractName": "WIDEVesting",
  "sourceName": "contracts/WIDEVesting.sol",
  "abi": [
    {
      "inputs": [
        {
          "internalType": "address",
          "name": "token_",
          "type": "address"
        }
      ],
      "stateMutability": "nonpayable",
      "type": "constructor"
    },
    {
      "anonymous": false,
      "inputs": [
        {
          "indexed": false,
          "internalType": "address",
          "name": "claimer",
          "type": "address"
        },
        {
          "indexed": false,
          "internalType": "uint256",
          "name": "amount",
          "type": "uint256"
        }
      ],
      "name": "Claimed",
      "type": "event"
    },
    {
      "anonymous": false,
      "inputs": [
        {
          "indexed": true,
          "internalType": "address",
          "name": "previousOwner",
          "type": "address"
        },
        {
          "indexed": true,
          "internalType": "address",
          "name": "newOwner",
          "type": "address"
        }
      ],
      "name": "OwnershipTransferred",
      "type": "event"
    },
    {
      "anonymous": false,
      "inputs": [
        {
          "indexed": false,
          "internalType": "address",
          "name": "receiver",
          "type": "address"
        },
        {
          "indexed": false,
          "internalType": "uint256",
          "name": "amount",
          "type": "uint256"
        }
      ],
      "name": "Vested",
      "type": "event"
    },
    {
      "inputs": [
        {
          "internalType": "address",
          "name": "",
          "type": "address"
        }
      ],
      "name": "balances",
      "outputs": [
        {
          "internalType": "uint256",
          "name": "",
          "type": "uint256"
        }
      ],
      "stateMutability": "view",
      "type": "function"
    },
    {
      "inputs": [
        {
          "internalType": "uint256",
          "name": "amount",
          "type": "uint256"
        }
      ],
      "name": "claim",
      "outputs": [],
      "stateMutability": "nonpayable",
      "type": "function"
    },
    {
      "inputs": [
        {
          "internalType": "address",
          "name": "receiver",
          "type": "address"
        }
      ],
      "name": "getInitialBalance",
      "outputs": [
        {
          "internalType": "uint256",
          "name": "",
          "type": "uint256"
        }
      ],
      "stateMutability": "view",
      "type": "function"
    },
    {
      "inputs": [
        {
          "internalType": "address",
          "name": "",
          "type": "address"
        }
      ],
      "name": "initialBalances",
      "outputs": [
        {
          "internalType": "uint256",
          "name": "",
          "type": "uint256"
        }
      ],
      "stateMutability": "view",
      "type": "function"
    },
    {
      "inputs": [],
      "name": "owner",
      "outputs": [
        {
          "internalType": "address",
          "name": "",
          "type": "address"
        }
      ],
      "stateMutability": "view",
      "type": "function"
    },
    {
      "inputs": [],
      "name": "renounceOwnership",
      "outputs": [],
      "stateMutability": "nonpayable",
      "type": "function"
    },
    {
      "inputs": [
        {
          "internalType": "address",
          "name": "newOwner",
          "type": "address"
        }
      ],
      "name": "transferOwnership",
      "outputs": [],
      "stateMutability": "nonpayable",
      "type": "function"
    },
    {
      "inputs": [
        {
          "internalType": "address",
          "name": "receiver",
          "type": "address"
        },
        {
          "internalType": "uint256",
          "name": "amount",
          "type": "uint256"
        }
      ],
      "name": "vest",
      "outputs": [],
      "stateMutability": "nonpayable",
      "type": "function"
    }
  ],
  "bytecode": "0x60a06040523480156200001157600080fd5b50604051620018b8380380620018b88339818101604052810190620000379190620001c1565b620000576200004b620000de60201b60201c565b620000e660201b60201c565b60018081905550600073ffffffffffffffffffffffffffffffffffffffff168173ffffffffffffffffffffffffffffffffffffffff1614156200009957600080fd5b8073ffffffffffffffffffffffffffffffffffffffff1660808173ffffffffffffffffffffffffffffffffffffffff1660601b8152505042600281905550506200023b565b600033905090565b60008060009054906101000a900473ffffffffffffffffffffffffffffffffffffffff169050816000806101000a81548173ffffffffffffffffffffffffffffffffffffffff021916908373ffffffffffffffffffffffffffffffffffffffff1602179055508173ffffffffffffffffffffffffffffffffffffffff168173ffffffffffffffffffffffffffffffffffffffff167f8be0079c531659141344cd1fd0a4f28419497f9722a3daafe3b4186f6b6457e060405160405180910390a35050565b600081519050620001bb8162000221565b92915050565b600060208284031215620001d457600080fd5b6000620001e484828501620001aa565b91505092915050565b6000620001fa8262000201565b9050919050565b600073ffffffffffffffffffffffffffffffffffffffff82169050919050565b6200022c81620001ed565b81146200023857600080fd5b50565b60805160601c6116576200026160003960008181610265015261056d01526116576000f3fe608060405234801561001057600080fd5b50600436106100885760003560e01c80638ce1e6a21161005b5780638ce1e6a2146100ff5780638da5cb5b1461012f5780639c2d90ee1461014d578063f2fde38b1461017d57610088565b80632797c6c81461008d57806327e235e3146100a9578063379607f5146100d9578063715018a6146100f5575b600080fd5b6100a760048036038101906100a29190610d70565b610199565b005b6100c360048036038101906100be9190610d47565b61041a565b6040516100d09190611187565b60405180910390f35b6100f360048036038101906100ee9190610dd5565b610432565b005b6100fd6105f4565b005b61011960048036038101906101149190610d47565b61067c565b6040516101269190611187565b60405180910390f35b610137610694565b6040516101449190611001565b60405180910390f35b61016760048036038101906101629190610d47565b6106bd565b6040516101749190611187565b60405180910390f35b61019760048036038101906101929190610d47565b610706565b005b600260015414156101df576040517f08c379a00000000000000000000000000000000000000000000000000000000081526004016101d690611167565b60405180910390fd5b60026001819055506101ef6107fe565b73ffffffffffffffffffffffffffffffffffffffff1661020d610694565b73ffffffffffffffffffffffffffffffffffffffff1614610263576040517f08c379a000000000000000000000000000000000000000000000000000000000815260040161025a90611107565b60405180910390fd5b7f000000000000000000000000000000000000000000000000000000000000000073ffffffffffffffffffffffffffffffffffffffff166370a08231306040518263ffffffff1660e01b81526004016102bc9190611001565b60206040518083038186803b1580156102d457600080fd5b505afa1580156102e8573d6000803e3d6000fd5b505050506040513d601f19601f8201168201806040525081019061030c9190610dfe565b81111561034e576040517f08c379a000000000000000000000000000000000000000000000000000000000815260040161034590611087565b60405180910390fd5b80600360008473ffffffffffffffffffffffffffffffffffffffff1673ffffffffffffffffffffffffffffffffffffffff168152602001908152602001600020819055506000600460008473ffffffffffffffffffffffffffffffffffffffff1673ffffffffffffffffffffffffffffffffffffffff168152602001908152602001600020819055507ed5958799b183a7b738d3ad5e711305293dd5076a37a4e3b7e6611dea6114f3828260405161040792919061101c565b60405180910390a1600180819055505050565b60046020528060005260406000206000915090505481565b60026001541415610478576040517f08c379a000000000000000000000000000000000000000000000000000000000815260040161046f90611167565b60405180910390fd5b60026001819055504260025411156104c5576040517f08c379a00000000000000000000000000000000000000000000000000000000081526004016104bc906110c7565b60405180910390fd5b806104cf33610806565b1015610510576040517f08c379a000000000000000000000000000000000000000000000000000000000815260040161050790611067565b60405180910390fd5b80600460003373ffffffffffffffffffffffffffffffffffffffff1673ffffffffffffffffffffffffffffffffffffffff168152602001908152602001600020600082825461055f91906111d4565b925050819055506105b133827f000000000000000000000000000000000000000000000000000000000000000073ffffffffffffffffffffffffffffffffffffffff166108f69092919063ffffffff16565b7fd8138f8a3f377c5259ca548e70e4c2de94f129f5a11036a15b69513cba2b426a33826040516105e292919061101c565b60405180910390a16001808190555050565b6105fc6107fe565b73ffffffffffffffffffffffffffffffffffffffff1661061a610694565b73ffffffffffffffffffffffffffffffffffffffff1614610670576040517f08c379a000000000000000000000000000000000000000000000000000000000815260040161066790611107565b60405180910390fd5b61067a600061097c565b565b60036020528060005260406000206000915090505481565b60008060009054906101000a900473ffffffffffffffffffffffffffffffffffffffff16905090565b6000600360008373ffffffffffffffffffffffffffffffffffffffff1673ffffffffffffffffffffffffffffffffffffffff168152602001908152602001600020549050919050565b61070e6107fe565b73ffffffffffffffffffffffffffffffffffffffff1661072c610694565b73ffffffffffffffffffffffffffffffffffffffff1614610782576040517f08c379a000000000000000000000000000000000000000000000000000000000815260040161077990611107565b60405180910390fd5b600073ffffffffffffffffffffffffffffffffffffffff168173ffffffffffffffffffffffffffffffffffffffff1614156107f2576040517f08c379a00000000000000000000000000000000000000000000000000000000081526004016107e9906110a7565b60405180910390fd5b6107fb8161097c565b50565b600033905090565b600080600360008473ffffffffffffffffffffffffffffffffffffffff1673ffffffffffffffffffffffffffffffffffffffff1681526020019081526020016000205490506000600460008573ffffffffffffffffffffffffffffffffffffffff1673ffffffffffffffffffffffffffffffffffffffff1681526020019081526020016000205490508181111561089c57600080fd5b6000806108a7610a40565b9050601e81116108db578281601e866108c0919061122a565b6108ca919061125b565b6108d491906112b5565b91506108ea565b82846108e791906112b5565b91505b81945050505050919050565b6109778363a9059cbb60e01b848460405160240161091592919061101c565b604051602081830303815290604052907bffffffffffffffffffffffffffffffffffffffffffffffffffffffff19166020820180517bffffffffffffffffffffffffffffffffffffffffffffffffffffffff8381831617835250505050610a86565b505050565b60008060009054906101000a900473ffffffffffffffffffffffffffffffffffffffff169050816000806101000a81548173ffffffffffffffffffffffffffffffffffffffff021916908373ffffffffffffffffffffffffffffffffffffffff1602179055508173ffffffffffffffffffffffffffffffffffffffff168173ffffffffffffffffffffffffffffffffffffffff167f8be0079c531659141344cd1fd0a4f28419497f9722a3daafe3b4186f6b6457e060405160405180910390a35050565b60006018603c806002546201518042610a5991906111d4565b610a6391906112b5565b610a6d919061122a565b610a77919061122a565b610a81919061122a565b905090565b6000610ae8826040518060400160405280602081526020017f5361666545524332303a206c6f772d6c6576656c2063616c6c206661696c65648152508573ffffffffffffffffffffffffffffffffffffffff16610b4d9092919063ffffffff16565b9050600081511115610b485780806020019051810190610b089190610dac565b610b47576040517f08c379a0000000000000000000000000000000000000000000000000000000008152600401610b3e90611147565b60405180910390fd5b5b505050565b6060610b5c8484600085610b65565b90509392505050565b606082471015610baa576040517f08c379a0000000000000000000000000000000000000000000000000000000008152600401610ba1906110e7565b60405180910390fd5b610bb385610c79565b610bf2576040517f08c379a0000000000000000000000000000000000000000000000000000000008152600401610be990611127565b60405180910390fd5b6000808673ffffffffffffffffffffffffffffffffffffffff168587604051610c1b9190610fea565b60006040518083038185875af1925050503d8060008114610c58576040519150601f19603f3d011682016040523d82523d6000602084013e610c5d565b606091505b5091509150610c6d828286610c8c565b92505050949350505050565b600080823b905060008111915050919050565b60608315610c9c57829050610cec565b600083511115610caf5782518084602001fd5b816040517f08c379a0000000000000000000000000000000000000000000000000000000008152600401610ce39190611045565b60405180910390fd5b9392505050565b600081359050610d02816115dc565b92915050565b600081519050610d17816115f3565b92915050565b600081359050610d2c8161160a565b92915050565b600081519050610d418161160a565b92915050565b600060208284031215610d5957600080fd5b6000610d6784828501610cf3565b91505092915050565b60008060408385031215610d8357600080fd5b6000610d9185828601610cf3565b9250506020610da285828601610d1d565b9150509250929050565b600060208284031215610dbe57600080fd5b6000610dcc84828501610d08565b91505092915050565b600060208284031215610de757600080fd5b6000610df584828501610d1d565b91505092915050565b600060208284031215610e1057600080fd5b6000610e1e84828501610d32565b91505092915050565b610e30816112e9565b82525050565b6000610e41826111a2565b610e4b81856111b8565b9350610e5b818560208601611331565b80840191505092915050565b6000610e72826111ad565b610e7c81856111c3565b9350610e8c818560208601611331565b610e95816113c2565b840191505092915050565b6000610ead601c836111c3565b9150610eb8826113d3565b602082019050919050565b6000610ed06036836111c3565b9150610edb826113fc565b604082019050919050565b6000610ef36026836111c3565b9150610efe8261144b565b604082019050919050565b6000610f16601d836111c3565b9150610f218261149a565b602082019050919050565b6000610f396026836111c3565b9150610f44826114c3565b604082019050919050565b6000610f5c6020836111c3565b9150610f6782611512565b602082019050919050565b6000610f7f601d836111c3565b9150610f8a8261153b565b602082019050919050565b6000610fa2602a836111c3565b9150610fad82611564565b604082019050919050565b6000610fc5601f836111c3565b9150610fd0826115b3565b602082019050919050565b610fe481611327565b82525050565b6000610ff68284610e36565b915081905092915050565b60006020820190506110166000830184610e27565b92915050565b60006040820190506110316000830185610e27565b61103e6020830184610fdb565b9392505050565b6000602082019050818103600083015261105f8184610e67565b905092915050565b6000602082019050818103600083015261108081610ea0565b9050919050565b600060208201905081810360008301526110a081610ec3565b9050919050565b600060208201905081810360008301526110c081610ee6565b9050919050565b600060208201905081810360008301526110e081610f09565b9050919050565b6000602082019050818103600083015261110081610f2c565b9050919050565b6000602082019050818103600083015261112081610f4f565b9050919050565b6000602082019050818103600083015261114081610f72565b9050919050565b6000602082019050818103600083015261116081610f95565b9050919050565b6000602082019050818103600083015261118081610fb8565b9050919050565b600060208201905061119c6000830184610fdb565b92915050565b600081519050919050565b600081519050919050565b600081905092915050565b600082825260208201905092915050565b60006111df82611327565b91506111ea83611327565b9250827fffffffffffffffffffffffffffffffffffffffffffffffffffffffffffffffff0382111561121f5761121e611364565b5b828201905092915050565b600061123582611327565b915061124083611327565b9250826112505761124f611393565b5b828204905092915050565b600061126682611327565b915061127183611327565b9250817fffffffffffffffffffffffffffffffffffffffffffffffffffffffffffffffff04831182151516156112aa576112a9611364565b5b828202905092915050565b60006112c082611327565b91506112cb83611327565b9250828210156112de576112dd611364565b5b828203905092915050565b60006112f482611307565b9050919050565b60008115159050919050565b600073ffffffffffffffffffffffffffffffffffffffff82169050919050565b6000819050919050565b60005b8381101561134f578082015181840152602081019050611334565b8381111561135e576000848401525b50505050565b7f4e487b7100000000000000000000000000000000000000000000000000000000600052601160045260246000fd5b7f4e487b7100000000000000000000000000000000000000000000000000000000600052601260045260246000fd5b6000601f19601f8301169050919050565b7f5749444556657374696e673a20416d6f756e7420746f6f206869676800000000600082015250565b7f5749444556657374696e673a204e6f7420656e6f75676820746f6b656e73206960008201527f6e2074686520636f6e74726163742062616c616e636500000000000000000000602082015250565b7f4f776e61626c653a206e6577206f776e657220697320746865207a65726f206160008201527f6464726573730000000000000000000000000000000000000000000000000000602082015250565b7f5749444556657374696e673a20596f7527726520746f6f206561726c79000000600082015250565b7f416464726573733a20696e73756666696369656e742062616c616e636520666f60008201527f722063616c6c0000000000000000000000000000000000000000000000000000602082015250565b7f4f776e61626c653a2063616c6c6572206973206e6f7420746865206f776e6572600082015250565b7f416464726573733a2063616c6c20746f206e6f6e2d636f6e7472616374000000600082015250565b7f5361666545524332303a204552433230206f7065726174696f6e20646964206e60008201527f6f74207375636365656400000000000000000000000000000000000000000000602082015250565b7f5265656e7472616e637947756172643a207265656e7472616e742063616c6c00600082015250565b6115e5816112e9565b81146115f057600080fd5b50565b6115fc816112fb565b811461160757600080fd5b50565b61161381611327565b811461161e57600080fd5b5056fea2646970667358221220740326eecdf9a4e8098a44efccaf237863ee45dffefbe9ca9bfa9e6b50be764264736f6c63430008040033",
  "linkReferences": {},
  "deployedLinkReferences": {}
}