{
  "_format": "hh-sol-artifact-1",
  "contractName": "WIDEVesting",
  "sourceName": "contracts/WIDEVesting.sol",
  "abi": [
    {
      "inputs": [
        {
          "internalType": "address",
          "name": "token_",
          "type": "address"
        }
      ],
      "stateMutability": "nonpayable",
      "type": "constructor"
    },
    {
      "anonymous": false,
      "inputs": [
        {
          "indexed": false,
          "internalType": "address",
          "name": "claimer",
          "type": "address"
        },
        {
          "indexed": false,
          "internalType": "uint256",
          "name": "amount",
          "type": "uint256"
        }
      ],
      "name": "Claimed",
      "type": "event"
    },
    {
      "anonymous": false,
      "inputs": [
        {
          "indexed": true,
          "internalType": "address",
          "name": "previousOwner",
          "type": "address"
        },
        {
          "indexed": true,
          "internalType": "address",
          "name": "newOwner",
          "type": "address"
        }
      ],
      "name": "OwnershipTransferred",
      "type": "event"
    },
    {
      "anonymous": false,
      "inputs": [
        {
          "indexed": false,
          "internalType": "address",
          "name": "receiver",
          "type": "address"
        },
        {
          "indexed": false,
          "internalType": "uint256",
          "name": "amount",
          "type": "uint256"
        }
      ],
      "name": "Vested",
      "type": "event"
    },
    {
      "inputs": [
        {
          "internalType": "uint256",
          "name": "amount",
          "type": "uint256"
        }
      ],
      "name": "claim",
      "outputs": [],
      "stateMutability": "nonpayable",
      "type": "function"
    },
    {
      "inputs": [
        {
          "internalType": "address",
          "name": "",
          "type": "address"
        }
      ],
      "name": "claimed",
      "outputs": [
        {
          "internalType": "uint256",
          "name": "",
          "type": "uint256"
        }
      ],
      "stateMutability": "view",
      "type": "function"
    },
    {
      "inputs": [
        {
          "internalType": "address",
          "name": "",
          "type": "address"
        }
      ],
      "name": "initialBalances",
      "outputs": [
        {
          "internalType": "uint256",
          "name": "",
          "type": "uint256"
        }
      ],
      "stateMutability": "view",
      "type": "function"
    },
    {
      "inputs": [],
      "name": "owner",
      "outputs": [
        {
          "internalType": "address",
          "name": "",
          "type": "address"
        }
      ],
      "stateMutability": "view",
      "type": "function"
    },
    {
      "inputs": [],
      "name": "renounceOwnership",
      "outputs": [],
      "stateMutability": "nonpayable",
      "type": "function"
    },
    {
      "inputs": [
        {
          "internalType": "address",
          "name": "receiver",
          "type": "address"
        }
      ],
      "name": "tokensAvailable",
      "outputs": [
        {
          "internalType": "uint256",
          "name": "",
          "type": "uint256"
        }
      ],
      "stateMutability": "view",
      "type": "function"
    },
    {
      "inputs": [
        {
          "internalType": "address",
          "name": "newOwner",
          "type": "address"
        }
      ],
      "name": "transferOwnership",
      "outputs": [],
      "stateMutability": "nonpayable",
      "type": "function"
    },
    {
      "inputs": [
        {
          "internalType": "address",
          "name": "receiver",
          "type": "address"
        },
        {
          "internalType": "uint256",
          "name": "amount",
          "type": "uint256"
        }
      ],
      "name": "vest",
      "outputs": [],
      "stateMutability": "nonpayable",
      "type": "function"
    }
  ],
  "bytecode": "0x60a06040523480156200001157600080fd5b506040516200186f3803806200186f8339818101604052810190620000379190620001c1565b620000576200004b620000de60201b60201c565b620000e660201b60201c565b60018081905550600073ffffffffffffffffffffffffffffffffffffffff168173ffffffffffffffffffffffffffffffffffffffff1614156200009957600080fd5b8073ffffffffffffffffffffffffffffffffffffffff1660808173ffffffffffffffffffffffffffffffffffffffff1660601b8152505042600281905550506200023b565b600033905090565b60008060009054906101000a900473ffffffffffffffffffffffffffffffffffffffff169050816000806101000a81548173ffffffffffffffffffffffffffffffffffffffff021916908373ffffffffffffffffffffffffffffffffffffffff1602179055508173ffffffffffffffffffffffffffffffffffffffff168173ffffffffffffffffffffffffffffffffffffffff167f8be0079c531659141344cd1fd0a4f28419497f9722a3daafe3b4186f6b6457e060405160405180910390a35050565b600081519050620001bb8162000221565b92915050565b600060208284031215620001d457600080fd5b6000620001e484828501620001aa565b91505092915050565b6000620001fa8262000201565b9050919050565b600073ffffffffffffffffffffffffffffffffffffffff82169050919050565b6200022c81620001ed565b81146200023857600080fd5b50565b60805160601c61160e62000261600039600081816102650152610555015261160e6000f3fe608060405234801561001057600080fd5b50600436106100885760003560e01c80638da5cb5b1161005b5780638da5cb5b146100ff578063c884ef831461011d578063c902ee361461014d578063f2fde38b1461017d57610088565b80632797c6c81461008d578063379607f5146100a9578063715018a6146100c55780638ce1e6a2146100cf575b600080fd5b6100a760048036038101906100a29190610d27565b610199565b005b6100c360048036038101906100be9190610d8c565b61041a565b005b6100cd6105dc565b005b6100e960048036038101906100e49190610cfe565b610664565b6040516100f6919061113e565b60405180910390f35b61010761067c565b6040516101149190610fb8565b60405180910390f35b61013760048036038101906101329190610cfe565b6106a5565b604051610144919061113e565b60405180910390f35b61016760048036038101906101629190610cfe565b6106bd565b604051610174919061113e565b60405180910390f35b61019760048036038101906101929190610cfe565b6107ad565b005b600260015414156101df576040517f08c379a00000000000000000000000000000000000000000000000000000000081526004016101d69061111e565b60405180910390fd5b60026001819055506101ef6108a5565b73ffffffffffffffffffffffffffffffffffffffff1661020d61067c565b73ffffffffffffffffffffffffffffffffffffffff1614610263576040517f08c379a000000000000000000000000000000000000000000000000000000000815260040161025a906110be565b60405180910390fd5b7f000000000000000000000000000000000000000000000000000000000000000073ffffffffffffffffffffffffffffffffffffffff166370a08231306040518263ffffffff1660e01b81526004016102bc9190610fb8565b60206040518083038186803b1580156102d457600080fd5b505afa1580156102e8573d6000803e3d6000fd5b505050506040513d601f19601f8201168201806040525081019061030c9190610db5565b81111561034e576040517f08c379a00000000000000000000000000000000000000000000000000000000081526004016103459061103e565b60405180910390fd5b80600360008473ffffffffffffffffffffffffffffffffffffffff1673ffffffffffffffffffffffffffffffffffffffff168152602001908152602001600020819055506000600460008473ffffffffffffffffffffffffffffffffffffffff1673ffffffffffffffffffffffffffffffffffffffff168152602001908152602001600020819055507ed5958799b183a7b738d3ad5e711305293dd5076a37a4e3b7e6611dea6114f38282604051610407929190610fd3565b60405180910390a1600180819055505050565b60026001541415610460576040517f08c379a00000000000000000000000000000000000000000000000000000000081526004016104579061111e565b60405180910390fd5b60026001819055504260025411156104ad576040517f08c379a00000000000000000000000000000000000000000000000000000000081526004016104a49061107e565b60405180910390fd5b806104b7336106bd565b10156104f8576040517f08c379a00000000000000000000000000000000000000000000000000000000081526004016104ef9061101e565b60405180910390fd5b80600460003373ffffffffffffffffffffffffffffffffffffffff1673ffffffffffffffffffffffffffffffffffffffff1681526020019081526020016000206000828254610547919061118b565b9250508190555061059933827f000000000000000000000000000000000000000000000000000000000000000073ffffffffffffffffffffffffffffffffffffffff166108ad9092919063ffffffff16565b7fd8138f8a3f377c5259ca548e70e4c2de94f129f5a11036a15b69513cba2b426a33826040516105ca929190610fd3565b60405180910390a16001808190555050565b6105e46108a5565b73ffffffffffffffffffffffffffffffffffffffff1661060261067c565b73ffffffffffffffffffffffffffffffffffffffff1614610658576040517f08c379a000000000000000000000000000000000000000000000000000000000815260040161064f906110be565b60405180910390fd5b6106626000610933565b565b60036020528060005260406000206000915090505481565b60008060009054906101000a900473ffffffffffffffffffffffffffffffffffffffff16905090565b60046020528060005260406000206000915090505481565b600080600360008473ffffffffffffffffffffffffffffffffffffffff1673ffffffffffffffffffffffffffffffffffffffff1681526020019081526020016000205490506000600460008573ffffffffffffffffffffffffffffffffffffffff1673ffffffffffffffffffffffffffffffffffffffff1681526020019081526020016000205490508181111561075357600080fd5b60008061075e6109f7565b9050601e8111610792578281601e8661077791906111e1565b6107819190611212565b61078b919061126c565b91506107a1565b828461079e919061126c565b91505b81945050505050919050565b6107b56108a5565b73ffffffffffffffffffffffffffffffffffffffff166107d361067c565b73ffffffffffffffffffffffffffffffffffffffff1614610829576040517f08c379a0000000000000000000000000000000000000000000000000000000008152600401610820906110be565b60405180910390fd5b600073ffffffffffffffffffffffffffffffffffffffff168173ffffffffffffffffffffffffffffffffffffffff161415610899576040517f08c379a00000000000000000000000000000000000000000000000000000000081526004016108909061105e565b60405180910390fd5b6108a281610933565b50565b600033905090565b61092e8363a9059cbb60e01b84846040516024016108cc929190610fd3565b604051602081830303815290604052907bffffffffffffffffffffffffffffffffffffffffffffffffffffffff19166020820180517bffffffffffffffffffffffffffffffffffffffffffffffffffffffff8381831617835250505050610a3d565b505050565b60008060009054906101000a900473ffffffffffffffffffffffffffffffffffffffff169050816000806101000a81548173ffffffffffffffffffffffffffffffffffffffff021916908373ffffffffffffffffffffffffffffffffffffffff1602179055508173ffffffffffffffffffffffffffffffffffffffff168173ffffffffffffffffffffffffffffffffffffffff167f8be0079c531659141344cd1fd0a4f28419497f9722a3daafe3b4186f6b6457e060405160405180910390a35050565b60006018603c806002546201518042610a10919061118b565b610a1a919061126c565b610a2491906111e1565b610a2e91906111e1565b610a3891906111e1565b905090565b6000610a9f826040518060400160405280602081526020017f5361666545524332303a206c6f772d6c6576656c2063616c6c206661696c65648152508573ffffffffffffffffffffffffffffffffffffffff16610b049092919063ffffffff16565b9050600081511115610aff5780806020019051810190610abf9190610d63565b610afe576040517f08c379a0000000000000000000000000000000000000000000000000000000008152600401610af5906110fe565b60405180910390fd5b5b505050565b6060610b138484600085610b1c565b90509392505050565b606082471015610b61576040517f08c379a0000000000000000000000000000000000000000000000000000000008152600401610b589061109e565b60405180910390fd5b610b6a85610c30565b610ba9576040517f08c379a0000000000000000000000000000000000000000000000000000000008152600401610ba0906110de565b60405180910390fd5b6000808673ffffffffffffffffffffffffffffffffffffffff168587604051610bd29190610fa1565b60006040518083038185875af1925050503d8060008114610c0f576040519150601f19603f3d011682016040523d82523d6000602084013e610c14565b606091505b5091509150610c24828286610c43565b92505050949350505050565b600080823b905060008111915050919050565b60608315610c5357829050610ca3565b600083511115610c665782518084602001fd5b816040517f08c379a0000000000000000000000000000000000000000000000000000000008152600401610c9a9190610ffc565b60405180910390fd5b9392505050565b600081359050610cb981611593565b92915050565b600081519050610cce816115aa565b92915050565b600081359050610ce3816115c1565b92915050565b600081519050610cf8816115c1565b92915050565b600060208284031215610d1057600080fd5b6000610d1e84828501610caa565b91505092915050565b60008060408385031215610d3a57600080fd5b6000610d4885828601610caa565b9250506020610d5985828601610cd4565b9150509250929050565b600060208284031215610d7557600080fd5b6000610d8384828501610cbf565b91505092915050565b600060208284031215610d9e57600080fd5b6000610dac84828501610cd4565b91505092915050565b600060208284031215610dc757600080fd5b6000610dd584828501610ce9565b91505092915050565b610de7816112a0565b82525050565b6000610df882611159565b610e02818561116f565b9350610e128185602086016112e8565b80840191505092915050565b6000610e2982611164565b610e33818561117a565b9350610e438185602086016112e8565b610e4c81611379565b840191505092915050565b6000610e64601c8361117a565b9150610e6f8261138a565b602082019050919050565b6000610e8760368361117a565b9150610e92826113b3565b604082019050919050565b6000610eaa60268361117a565b9150610eb582611402565b604082019050919050565b6000610ecd601d8361117a565b9150610ed882611451565b602082019050919050565b6000610ef060268361117a565b9150610efb8261147a565b604082019050919050565b6000610f1360208361117a565b9150610f1e826114c9565b602082019050919050565b6000610f36601d8361117a565b9150610f41826114f2565b602082019050919050565b6000610f59602a8361117a565b9150610f648261151b565b604082019050919050565b6000610f7c601f8361117a565b9150610f878261156a565b602082019050919050565b610f9b816112de565b82525050565b6000610fad8284610ded565b915081905092915050565b6000602082019050610fcd6000830184610dde565b92915050565b6000604082019050610fe86000830185610dde565b610ff56020830184610f92565b9392505050565b600060208201905081810360008301526110168184610e1e565b905092915050565b6000602082019050818103600083015261103781610e57565b9050919050565b6000602082019050818103600083015261105781610e7a565b9050919050565b6000602082019050818103600083015261107781610e9d565b9050919050565b6000602082019050818103600083015261109781610ec0565b9050919050565b600060208201905081810360008301526110b781610ee3565b9050919050565b600060208201905081810360008301526110d781610f06565b9050919050565b600060208201905081810360008301526110f781610f29565b9050919050565b6000602082019050818103600083015261111781610f4c565b9050919050565b6000602082019050818103600083015261113781610f6f565b9050919050565b60006020820190506111536000830184610f92565b92915050565b600081519050919050565b600081519050919050565b600081905092915050565b600082825260208201905092915050565b6000611196826112de565b91506111a1836112de565b9250827fffffffffffffffffffffffffffffffffffffffffffffffffffffffffffffffff038211156111d6576111d561131b565b5b828201905092915050565b60006111ec826112de565b91506111f7836112de565b9250826112075761120661134a565b5b828204905092915050565b600061121d826112de565b9150611228836112de565b9250817fffffffffffffffffffffffffffffffffffffffffffffffffffffffffffffffff04831182151516156112615761126061131b565b5b828202905092915050565b6000611277826112de565b9150611282836112de565b9250828210156112955761129461131b565b5b828203905092915050565b60006112ab826112be565b9050919050565b60008115159050919050565b600073ffffffffffffffffffffffffffffffffffffffff82169050919050565b6000819050919050565b60005b838110156113065780820151818401526020810190506112eb565b83811115611315576000848401525b50505050565b7f4e487b7100000000000000000000000000000000000000000000000000000000600052601160045260246000fd5b7f4e487b7100000000000000000000000000000000000000000000000000000000600052601260045260246000fd5b6000601f19601f8301169050919050565b7f5749444556657374696e673a20416d6f756e7420746f6f206869676800000000600082015250565b7f5749444556657374696e673a204e6f7420656e6f75676820746f6b656e73206960008201527f6e2074686520636f6e74726163742062616c616e636500000000000000000000602082015250565b7f4f776e61626c653a206e6577206f776e657220697320746865207a65726f206160008201527f6464726573730000000000000000000000000000000000000000000000000000602082015250565b7f5749444556657374696e673a20596f7527726520746f6f206561726c79000000600082015250565b7f416464726573733a20696e73756666696369656e742062616c616e636520666f60008201527f722063616c6c0000000000000000000000000000000000000000000000000000602082015250565b7f4f776e61626c653a2063616c6c6572206973206e6f7420746865206f776e6572600082015250565b7f416464726573733a2063616c6c20746f206e6f6e2d636f6e7472616374000000600082015250565b7f5361666545524332303a204552433230206f7065726174696f6e20646964206e60008201527f6f74207375636365656400000000000000000000000000000000000000000000602082015250565b7f5265656e7472616e637947756172643a207265656e7472616e742063616c6c00600082015250565b61159c816112a0565b81146115a757600080fd5b50565b6115b3816112b2565b81146115be57600080fd5b50565b6115ca816112de565b81146115d557600080fd5b5056fea264697066735822122017ea3c8cd83addecb9e972cddba4509ffd742aa9c43fb34dfb1603c602aef3fa64736f6c63430008040033",
  "linkReferences": {},
  "deployedLinkReferences": {}
}